:1000000042C0DAC15BC05AC059C058C057C056C0C0
:1000100055C054C053C052C051C050C04FC04EC054
:100020004DC04CC04BC04AC049C048C047C046C084
:1000300045C044C0090212000101008019090400F2
:1000400000000000000012011001FF000008C016AF
:10005000DC050401010200010E03550053004200BB
:100060006100730070001C037700770077002E009A
:10007000660069007300630068006C002E00640075
:1000800065000403090411241FBECFEFD4E0DEBFD6
:10009000CDBF11E0A0E0B1E0EEEAF1E102C00590D1
:1000A0000D92A230B107D9F721E0A2E0B1E001C082
:1000B0001D92AA34B207E1F767D877C8A1CF1F9382
:1000C000CF93DF9360912801635067FF49C080910F
:1000D000010184FF04C0109100011F3F61F494E10D
:1000E00003C0915009F450C089B18C70D1F3DF91F5
:1000F000CF911F9108958091180198E889271930B0
:1001000008F44AC0C8EFC10FC093000180931801E2
:1001100018E08091020187FDA0C0E0912601F091D6
:10012000270186FF78C0A9E1B1E08FEF810F90E051
:1001300001968E0F9F1F24912D933196E817F90792
:10014000D1F7F0932701E0932601612F89E191E037
:100150002FD1C4E0C10FCC3051F5C0930101BFCF06
:10016000209125018CE090E0821B9109EC01C45D97
:10017000DE4F809124018D32F1F08091020187FDE4
:1001800040C010922801A3CF1092290110922301A0
:10019000DF91CF911F910895109200018093180173
:1001A0001111B7CF60E089E191E002D1C4E09FEF87
:1001B00090930001D2CF683021F783EC809318012F
:1001C0008AE5809301011092020188818076D1F541
:1001D0002A81109221019981911152C0109222011D
:1001E00081E291E0909327018093260182E09F8134
:1001F000911104C09E81981708F4892F8093000103
:10020000C0CFCE01E6D68F3FB9F1882309F4B9CF2C
:1002100010920001B6CFDF0189E191E06FEF610F2D
:1002200070E0AF014F5F5F4F460F571F2D91EC01FC
:100230002993CE014A175B07C9F76F5F7F4FE60F1F
:10024000F71F7FCFCE01BFD48F3F89F6988197FDEE
:100250008E8190E890930201D1CF612F89E191E0E6
:100260003ED6182F893008F470CF8FEF80930001AD
:10027000CEE1C093010133CF8EE18093010181CFA4
:10028000953079F09630B1F09830F9F0993029F145
:100290009A30C9F121E231E0309327012093260101
:1002A000ADCF2093290121E231E030932701209343
:1002B0002601A4CF9B819130C9F1923061F1933036
:1002C000A9F090E49093020199CF8BE291E0909392
:1002D00027018093260181E08ACF20932B0121E220
:1002E00031E0309327012093260188CF211129C0C6
:1002F00082E890E0909327018093260180E4809328
:10030000020184E074CF81E291E090932701809311
:10031000260181E06CCF84E390E0909327018093E5
:10032000260180E48093020182E161CF86E490E0BF
:10033000909327018093260180E48093020182E15B
:1003400056CF213071F0223009F0BBCF88E590E024
:10035000909327018093260180E4809302018EE030
:1003600046CF86E690E0909327018093260180E4B3
:10037000809302018CE13BCFE9E6F0E0808183606D
:100380008083E89A0895A82FB92F80E090E041E09B
:1003900050EA609530E009C02D91822797958795A6
:1003A00010F084279527305EC8F36F5FA8F3089597
:1003B000EADF8D939D930895CF93CFB7CF93C395E5
:1003C0004B9BE9F74B9B09C04B9B07C04B9B05C060
:1003D0004B9B03C04B9B01C0A1C0DF93C091250183
:1003E000DD27C45DDE4F4B9B02C0DF91EBCF2F9327
:1003F0000F931F9309B12FEF03FB20F94F933F9306
:1004000019B14FEF012703FB21F93BE031C04E7FCB
:10041000012F19B1216028C0102F4D7F22600000EC
:1004200009B129C04B7F2460012F000019B12BC0F6
:1004300019B1477F28602AC04F7E09B120612CC0C6
:100440004F7D19B120622FC04F7B09B1206432C0AB
:10045000422709B149934FEF0000102713FB20F901
:1004600019B11C70C9F1297F91F2012703FB21F911
:1004700009B1237F89F2315058F1102713FB22F97B
:1004800019B1277E79F2012703FB23F92F7C81F232
:1004900009B1102713FB24F92F7971F200C019B1AB
:1004A000012703FB25F92F7359F200C009B110276A
:1004B00013FB26F9223040F200C019B1012703FBDB
:1004C00027F9243028F64F77206819B10000F9CFBA
:1004D00011E01CBB002717C03B503195C31BD04017
:1004E00011E01CBB0881033CE9F00B34D9F02091EA
:1004F00023011981110F1213EDCF093641F10D328D
:1005000011F0013E39F700932A013F914F911F915D
:100510000F912F91DF91CCB3C0FD51CFCF91CFBFC1
:10052000CF91189520912A01222379F31091280167
:10053000112311F5343012F1309328012093240156
:10054000109125013BE0311B3093250117C000912C
:10055000280101308CF40AE53091010134FD10C00E
:1005600000930101C8E1D1E00FC02795A8F45150D4
:10057000A9F4220F0000F9CF4AE503C042ED01C003
:10058000432FC4E1D0E032E01AB11C605B9A1AB983
:100590000BB120E41CE05F93012756E00BB92795CF
:1005A00020F4515021F4220FF9CF012756E000002A
:1005B0003B5A0BB9D0F2279528F4515029F4220F59
:1005C0000000F9CF012756E027950BB920F45150D0
:1005D00021F4220FF9CF012756E0299133230BB9DB
:1005E00021F6037F10912901110FC651D0400BB99C
:1005F00011F01093230111E01CBB08601AB1137FA6
:10060000402F437F5F9100C000C00BB91AB94BB9AE
:100610007CCF582F48E080E057FD18C02B98550F2D
:10062000880F1C998F5F2D9A36B52091470196B59A
:10063000931B9217E0F32D9836B52091470196B59C
:10064000931B9217E0F3415039F708952B9AE7CFA7
:100650008EBD0DB407FEFDCF8EB50895DC01CB0134
:1006600021E1B695A795979587952A95D1F7209181
:1006700046012817D9F080934601E0914301F0919B
:1006800044018DE40995E0914301F091440180E03B
:100690000995E0914301F09144018091460109954B
:1006A000E0914301F091440180E009940895809124
:1006B00045018CBD809142018DBD0895811110C00E
:1006C00088E293E0909344018093430181E080931A
:1006D000470182E58093450181E0809342010895BE
:1006E000883098F429E033E03093440120934301AB
:1006F000843009F441C008F1863099F1C8F187309F
:1007000079F583E080934701089528E233E0309340
:100710004401209343011092420191E090934701DC
:10072000893099F0B0F08B3021F08C3091F69093B5
:10073000420181E58093450108958230A9F083301C
:1007400079F480E380934701089582E58093450121
:100750000895883009F0BDCF83E580934501089561
:1007600080EC80934701089580E6809347010895C7
:100770008CE080934701089588E1809347010895B4
:1007800026B59091470186B5821B8917E0F308953D
:1007900084B18C6284B92A982D9826B5909147012E
:1007A00086B5821B8917E0F32A9A26B590914701F6
:1007B00086B5821B8917E0F32A98809143019091B6
:1007C00044018852934031F4809145018CBD809161
:1007D00042018DBD10924601089584B1837D84B994
:1007E00085B1837D85B91CBC0895CF93DF93C0E2AA
:1007F000E0914301F09144018CEA0995E0914301B5
:10080000F091440183E50995E0914301F0914401A1
:1008100080E00995D82FE0914301F091440180E0F8
:100820000995D33561F11CBC26B59091470186B579
:10083000821B8917E0F32A9A26B59091470186B565
:10084000821B8917E0F32A9826B59091470186B557
:10085000821B8917E0F380914301909144018852F3
:10086000934031F0C15021F681E0DF91CF9108959E
:10087000809145018CBD809142018DBDF3CF80E018
:10088000DF91CF910895CF92DF92EF92FF926B01AB
:100890007C01E4DE8C2D880F880F880F8870E09132
:1008A0004301F091440180620995D701C60129E016
:1008B000B695A795979587952A95D1F7E09143012D
:1008C000F09144010995D701C601B695A795979572
:1008D0008795E0914301F09144010995E09143012E
:1008E000F091440180E0FF90EF90DF90CF90099469
:1008F000CF92DF92EF92FF92CF93DF936B017C0157
:10090000C42FD22FABDE8C2D880F880F880F8870F4
:10091000E0914301F091440180640995D701C6013B
:1009200029E0B695A795979587952A95D1F7E091F7
:100930004301F09144010995D701C601B695A795E9
:1009400097958795E0914301F09144010995E091D5
:100950004301F09144018C2F0995DD23C1F0CF377D
:10096000F1F0C6B5DEE1C701B6018DDF8F3779F44E
:1009700086B58C1B8D33B8F3C6B5D150A1F781E095
:10098000DF91CF91FF90EF90DF90CF90089580E0BE
:10099000DF91CF91FF90EF90DF90CF9008958FE09F
:1009A0009DD080E0F5CFCF92DF92EF92FF92CF9370
:1009B000DF936B017C01C42F51DEE0914301F09184
:1009C00044018CE40995D701C60129E0B695A795A5
:1009D000979587952A95D1F7E0914301F0914401CD
:1009E0000995D701C601B695A79597958795E0918A
:1009F0004301F09144010995E0914301F0914401D4
:100A000080E00995CF3FF1F0C6B5DEE1C701B60140
:100A10003ADF8F3F79F486B58C1B8D33B8F3C6B5BA
:100A2000D150A1F781E0DF91CF91FF90EF90DF905F
:100A3000CF90089580E0DF91CF91FF90EF90DF900D
:100A4000CF9008958FE04AD080E0DF91CF91FF9062
:100A5000EF90DF90CF900895CF93DF93EC01E0917A
:100A60004301F091440180EA0995E0914301F0913E
:100A700044018D2F0995E0914301F09144018C2FA1
:100A80000995E0914301F091440180E0DF91CF911D
:100A900009941F93CF93DF93D82F192FC62FE0917E
:100AA0004301F091440180EC0995E0914301F091FC
:100AB0004401812F0995E0914301F09144018D2F6C
:100AC0000995E0914301F09144018C2F09958EE145
:100AD00005D080E0DF91CF911F910895882349F0E0
:100AE00030E026B596B5921B9C33E0F33F5F83134D
:100AF000F8CF0895259A23982B9A50E217D05A954B
:100B0000E9F70895AC0188E605D0842F03D089E683
:100B100001D0852F0FD028E030E0382780FB869564
:100B200006D02A95D1F730FB02D000D068942398E4
:100B30002B9A16F02B98239AE0914801F0914901E5
:100B40003197F0F72D9AE3B1E3FBE0914801F09182
:100B500049013197F0F72D98089520ECE7DF46F42E
:100B60002A95E1F780E02AE1E5DF2A95E9F7DECF73
:100B700028E030E0DBDF869587F938272A95D1F722
:100B8000D5DF27F9322772F3D1DFD0CFDB01742F05
:100B9000B9DF84E2BFDFE1DF8D937A95D1F7089565
:100BA000DB01742FAFDF83EFB5DF8DE1B3DF84E6C8
:100BB000B1DF8D91AFDF82E7ADDFCFDF8078D9F78E
:100BC0007A9589F70895CF93DF93EC01898181307D
:100BD00009F45AC0823009F465C0833051F5E091C0
:100BE0004301F09144018A81099580931001E091BD
:100BF0004301F09144018B81099580931101E091AB
:100C00004301F09144018C81099580931201E09198
:100C10004301F09144018D8109958093130184E093
:100C200020E131E03093270120932601DF91CF911D
:100C300008958430D9F1873009F45CC0853009F417
:100C400076C0863009F489C0883009F4B9C089308B
:100C500009F472C08A3009F446C08B3009F4D3C05D
:100C60008C3009F4E1C08D3009F4F3C08E3009F402
:100C7000F5C08F3009F4F6C0803109F40CC18F370C
:100C800009F422C180E0CCCF329B09C080910E01D3
:100C900015DD10920D0141987BDD80E0C1CF85E02C
:100CA0000DDDF7CF9ADD419A80E0BACF80910D013A
:100CB00081110EC08A819B81092E000CAA0BBB0BEF
:100CC0008093090190930A01A0930B01B0930C014A
:100CD0008E819F81909308018093070182E0809329
:100CE0000F018FEF9DCF8A8180930E01109210012A
:100CF00081E096CF80910D0181110EC08A819B8188
:100D0000092E000CAA0BBB0B8093090190930A01DA
:100D1000A0930B01B0930C018E819F8190930801E9
:100D20008093070183E080930F018FEF79CF5DDD22
:100D30008093100181E074CF81E080930D018A815E
:100D40009B81AC81BD818093090190930A01A0939E
:100D50000B01B0930C0180E063CF80910D018111F4
:100D60000EC08A819B81092E000CAA0BBB0B8093BD
:100D7000090190930A01A0930B01B0930C018C819F
:100D80002D81922F9F709093040190E1299FA001E3
:100D9000112444275F70840F952F911D90930601B5
:100DA0008093050120FD809303018E819F819093A4
:100DB00008018093070181E080930F018FEF30CF0E
:100DC00080910D0181110EC08A819B81092E000C3A
:100DD000AA0BBB0B8093090190930A01A0930B010E
:100DE000B0930C01109206011092050110920401BB
:100DF0008E819F81909308018093070184E0809306
:100E00000F018FEF0DCF8A819B81909349018093D1
:100E100048012A9A229A83E061DE2A98419880E16B
:100E20005DDE68DE80E0FCCE80EC74DE80E072DEA9
:100E30008AE054DE2A9A85E051DE2A9885E04EDE6B
:100E400084B1837D84B985B1837D85B9419A80E081
:100E5000E7CE83DE8093100181E0E2CE8A815ADE04
:100E600080E0DECE8A819B81092E000CAA0BBB0B91
:100E70008093090190930A01A0930B01B0930C0198
:100E80008E819F81909308018093070185E0809374
:100E90000F018FEFC5CE8A819B81092E000CAA0B12
:100EA000BB0B8093090190930A01A0930B01B093AF
:100EB0000C018E819F81909308018093070186E049
:100EC00080930F018FEFACCE81E0809310011092E0
:100ED0001101109212011092130184E0A1CEFF9231
:100EE0000F931F93CF93DF93582F792FF62E2091D6
:100EF0000F013EEF320F323028F18FEF2530E1F451
:100F0000462F652F8091090190910A013FDE809163
:100F1000090190910A01A0910B01B0910C018F0D74
:100F2000911DA11DB11D8093090190930A01A09309
:100F30000B01B0930C018F2DDF91CF911F910F9179
:100F4000FF900895662391F18091090190910A0123
:100F5000A0910B01B0910C01C52FD72F0FEF060FF9
:100F60000C0F1D2F111D1BC077DD88838091090197
:100F700090910A01A0910B01B0910C010196A11D65
:100F8000B11D8093090190930A01A0930B01B093C6
:100F90000C010C171D0799F020910F0121962230AA
:100FA00019F7BC01CD016FDC8883E0CF10920F01EF
:100FB0008F2DDF91CF911F910F91FF90089587E0C2
:100FC0008F15A0F78F2DDF91CF911F910F91FF907B
:100FD0000895FF920F931F93CF93DF93382F792FAC
:100FE000062F20910F012130C9F12430B9F1FF24DF
:100FF000FA94263061F5462F682F8091090190916F
:101000000A01CEDD8091090190910A01A0910B01A6
:10101000B0910C01800F911DA11DB11D809309019C
:1010200090930A01A0930B01B0930C0180910701EA
:1010300090910801801B910990930801809307010A
:10104000892B09F099C010920F01FF24F3948F2D82
:10105000DF91CF911F910F91FF900895002309F424
:101060008BC08091090190910A01A0910B01B09170
:101070000C01C32FD72F0150AE014F5F5F4F040FFC
:10108000152F111DF12C4991213009F045C02091F7
:10109000050130910601232B09F041C021E0BC017C
:1010A000CD0126DC20910701309108012150310942
:1010B00030930801209307018091090190910A0162
:1010C000A0910B01B0910C01232B89F410920F0118
:1010D0002091040121FF09C04091030120910501E5
:1010E0003091060142171306B1F5FF24F3940196DF
:1010F000A11DB11D8093090190930A01A0930B01DA
:10110000B0930C010C171D0709F4A1CF20910F011A
:101110004991213009F4BBCF642FBBDCC3CF20E061
:10112000BC01CD01E5DB8091030181508093030177
:101130008111B8CF6091090170910A0180910B0172
:1011400090910C01FE01319740812DDC80910501C9
:1011500080930301A7CFFE0131974081BC01CD01EF
:1011600022DC8091090190910A01A0910B01B091BC
:101170000C01FF24F394BBCFF12C8F2DDF91CF9185
:101180001F910F91FF9008951BB815B883EF8AB98E
:101190008FEF84B914B883E087B99EEF98B985BD05
:0E11A000EBD878948CD78BD7FDCFF894FFCF87
:0211AE00FF5AE6
:00000001FF
